{
  "contractName": "GlieceTasks",
  "abi": [
    {
      "inputs": [],
      "stateMutability": "nonpayable",
      "type": "constructor"
    },
    {
      "anonymous": false,
      "inputs": [
        {
          "indexed": false,
          "internalType": "uint256",
          "name": "id",
          "type": "uint256"
        },
        {
          "indexed": false,
          "internalType": "string",
          "name": "title",
          "type": "string"
        },
        {
          "indexed": false,
          "internalType": "string",
          "name": "description",
          "type": "string"
        },
        {
          "indexed": false,
          "internalType": "bool",
          "name": "realized",
          "type": "bool"
        },
        {
          "indexed": false,
          "internalType": "uint256",
          "name": "createdAt",
          "type": "uint256"
        }
      ],
      "name": "TaskCreated",
      "type": "event"
    },
    {
      "anonymous": false,
      "inputs": [
        {
          "indexed": false,
          "internalType": "uint256",
          "name": "id",
          "type": "uint256"
        },
        {
          "indexed": false,
          "internalType": "bool",
          "name": "realized",
          "type": "bool"
        }
      ],
      "name": "TaskDone",
      "type": "event"
    },
    {
      "inputs": [],
      "name": "taskCounter",
      "outputs": [
        {
          "internalType": "uint256",
          "name": "",
          "type": "uint256"
        }
      ],
      "stateMutability": "view",
      "type": "function",
      "constant": true
    },
    {
      "inputs": [
        {
          "internalType": "uint256",
          "name": "",
          "type": "uint256"
        }
      ],
      "name": "tasks",
      "outputs": [
        {
          "internalType": "uint256",
          "name": "id",
          "type": "uint256"
        },
        {
          "internalType": "string",
          "name": "title",
          "type": "string"
        },
        {
          "internalType": "string",
          "name": "description",
          "type": "string"
        },
        {
          "internalType": "bool",
          "name": "realized",
          "type": "bool"
        },
        {
          "internalType": "uint256",
          "name": "createdAt",
          "type": "uint256"
        }
      ],
      "stateMutability": "view",
      "type": "function",
      "constant": true
    },
    {
      "inputs": [
        {
          "internalType": "string",
          "name": "_title",
          "type": "string"
        },
        {
          "internalType": "string",
          "name": "_description",
          "type": "string"
        }
      ],
      "name": "createTask",
      "outputs": [],
      "stateMutability": "nonpayable",
      "type": "function"
    },
    {
      "inputs": [
        {
          "internalType": "uint256",
          "name": "_id",
          "type": "uint256"
        }
      ],
      "name": "taskDone",
      "outputs": [],
      "stateMutability": "nonpayable",
      "type": "function"
    }
  ],
  "bytecode": "0x6080604052600080553480156200001557600080fd5b50620000926040518060400160405280601a81526020017f4d69207072696d657220746172656120646520656a656d706c6f0000000000008152506040518060400160405280601381526020017f6a6f76656e6573206d696c6c6f6e6172696f73000000000000000000000000008152506200009860201b60201c565b62000485565b600080815480929190620000ac9062000297565b91905055506040518060a00160405280600054815260200183815260200182815260200160001515815260200142815250600160008054815260200190815260200160002060008201518160000155602082015181600101908051906020019062000119929190620001ae565b50604082015181600201908051906020019062000138929190620001ae565b5060608201518160030160006101000a81548160ff021916908315150217905550608082015181600401559050507f6549102bed7d1bb5ec529ee14e2ca60ffc1f47f66d4cc6ca713220613cc64c256000548383600042604051620001a2959493929190620003b6565b60405180910390a15050565b828054620001bc9062000450565b90600052602060002090601f016020900481019282620001e057600085556200022c565b82601f10620001fb57805160ff19168380011785556200022c565b828001600101855582156200022c579182015b828111156200022b5782518255916020019190600101906200020e565b5b5090506200023b91906200023f565b5090565b5b808211156200025a57600081600090555060010162000240565b5090565b7f4e487b7100000000000000000000000000000000000000000000000000000000600052601160045260246000fd5b6000819050919050565b6000620002a4826200028d565b91507fffffffffffffffffffffffffffffffffffffffffffffffffffffffffffffffff8203620002d957620002d86200025e565b5b600182019050919050565b620002ef816200028d565b82525050565b600081519050919050565b600082825260208201905092915050565b60005b838110156200033157808201518184015260208101905062000314565b8381111562000341576000848401525b50505050565b6000601f19601f8301169050919050565b60006200036582620002f5565b62000371818562000300565b93506200038381856020860162000311565b6200038e8162000347565b840191505092915050565b60008115159050919050565b620003b08162000399565b82525050565b600060a082019050620003cd6000830188620002e4565b8181036020830152620003e1818762000358565b90508181036040830152620003f7818662000358565b9050620004086060830185620003a5565b620004176080830184620002e4565b9695505050505050565b7f4e487b7100000000000000000000000000000000000000000000000000000000600052602260045260246000fd5b600060028204905060018216806200046957607f821691505b6020821081036200047f576200047e62000421565b5b50919050565b610ace80620004956000396000f3fe608060405234801561001057600080fd5b506004361061004c5760003560e01c8063292a4585146100515780632f565ba91461006d57806358671730146100895780638d977672146100a7575b600080fd5b61006b6004803603810190610066919061078f565b6100db565b005b6100876004803603810190610082919061083d565b6101e9565b005b610091610439565b60405161009e9190610879565b60405180910390f35b6100c160048036038101906100bc919061083d565b61043f565b6040516100d2959493929190610937565b60405180910390f35b6000808154809291906100ed906109c7565b91905055506040518060a001604052806000548152602001838152602001828152602001600015158152602001428152506001600080548152602001908152602001600020600082015181600001556020820151816001019080519060200190610158929190610592565b506040820151816002019080519060200190610175929190610592565b5060608201518160030160006101000a81548160ff021916908315150217905550608082015181600401559050507f6549102bed7d1bb5ec529ee14e2ca60ffc1f47f66d4cc6ca713220613cc64c2560005483836000426040516101dd959493929190610937565b60405180910390a15050565b6000600160008381526020019081526020016000206040518060a00160405290816000820154815260200160018201805461022390610a3e565b80601f016020809104026020016040519081016040528092919081815260200182805461024f90610a3e565b801561029c5780601f106102715761010080835404028352916020019161029c565b820191906000526020600020905b81548152906001019060200180831161027f57829003601f168201915b505050505081526020016002820180546102b590610a3e565b80601f01602080910402602001604051908101604052809291908181526020018280546102e190610a3e565b801561032e5780601f106103035761010080835404028352916020019161032e565b820191906000526020600020905b81548152906001019060200180831161031157829003601f168201915b505050505081526020016003820160009054906101000a900460ff16151515158152602001600482015481525050905080606001511581606001901515908115158152505080600160008481526020019081526020016000206000820151816000015560208201518160010190805190602001906103ad929190610592565b5060408201518160020190805190602001906103ca929190610592565b5060608201518160030160006101000a81548160ff021916908315150217905550608082015181600401559050507f251062f57a23c015c1bb3d83e76d85792cfbbf680886fc45d962d4605b0e5ea282826060015160405161042d929190610a6f565b60405180910390a15050565b60005481565b600160205280600052604060002060009150905080600001549080600101805461046890610a3e565b80601f016020809104026020016040519081016040528092919081815260200182805461049490610a3e565b80156104e15780601f106104b6576101008083540402835291602001916104e1565b820191906000526020600020905b8154815290600101906020018083116104c457829003601f168201915b5050505050908060020180546104f690610a3e565b80601f016020809104026020016040519081016040528092919081815260200182805461052290610a3e565b801561056f5780601f106105445761010080835404028352916020019161056f565b820191906000526020600020905b81548152906001019060200180831161055257829003601f168201915b5050505050908060030160009054906101000a900460ff16908060040154905085565b82805461059e90610a3e565b90600052602060002090601f0160209004810192826105c05760008555610607565b82601f106105d957805160ff1916838001178555610607565b82800160010185558215610607579182015b828111156106065782518255916020019190600101906105eb565b5b5090506106149190610618565b5090565b5b80821115610631576000816000905550600101610619565b5090565b6000604051905090565b600080fd5b600080fd5b600080fd5b600080fd5b6000601f19601f8301169050919050565b7f4e487b7100000000000000000000000000000000000000000000000000000000600052604160045260246000fd5b61069c82610653565b810181811067ffffffffffffffff821117156106bb576106ba610664565b5b80604052505050565b60006106ce610635565b90506106da8282610693565b919050565b600067ffffffffffffffff8211156106fa576106f9610664565b5b61070382610653565b9050602081019050919050565b82818337600083830152505050565b600061073261072d846106df565b6106c4565b90508281526020810184848401111561074e5761074d61064e565b5b610759848285610710565b509392505050565b600082601f83011261077657610775610649565b5b813561078684826020860161071f565b91505092915050565b600080604083850312156107a6576107a561063f565b5b600083013567ffffffffffffffff8111156107c4576107c3610644565b5b6107d085828601610761565b925050602083013567ffffffffffffffff8111156107f1576107f0610644565b5b6107fd85828601610761565b9150509250929050565b6000819050919050565b61081a81610807565b811461082557600080fd5b50565b60008135905061083781610811565b92915050565b6000602082840312156108535761085261063f565b5b600061086184828501610828565b91505092915050565b61087381610807565b82525050565b600060208201905061088e600083018461086a565b92915050565b600081519050919050565b600082825260208201905092915050565b60005b838110156108ce5780820151818401526020810190506108b3565b838111156108dd576000848401525b50505050565b60006108ee82610894565b6108f8818561089f565b93506109088185602086016108b0565b61091181610653565b840191505092915050565b60008115159050919050565b6109318161091c565b82525050565b600060a08201905061094c600083018861086a565b818103602083015261095e81876108e3565b9050818103604083015261097281866108e3565b90506109816060830185610928565b61098e608083018461086a565b9695505050505050565b7f4e487b7100000000000000000000000000000000000000000000000000000000600052601160045260246000fd5b60006109d282610807565b91507fffffffffffffffffffffffffffffffffffffffffffffffffffffffffffffffff8203610a0457610a03610998565b5b600182019050919050565b7f4e487b7100000000000000000000000000000000000000000000000000000000600052602260045260246000fd5b60006002820490506001821680610a5657607f821691505b602082108103610a6957610a68610a0f565b5b50919050565b6000604082019050610a84600083018561086a565b610a916020830184610928565b939250505056fea2646970667358221220fff0669ac7339e89d12f66fae19b5a08ab4125fb6425cec5f90b66e9eb0ec0dd64736f6c634300080d0033",
  "immutableReferences": {},
  "source": "// SPDX-License-Identifier: MIT \r\npragma solidity >=0.8.0 <0.9.0;\r\n\r\ncontract GlieceTasks {\r\n\r\n    uint public taskCounter = 0;\r\n\r\n    struct Task {\r\n        uint id;\r\n        string title;\r\n        string description;\r\n        bool realized;\r\n        uint  createdAt;\r\n    }\r\n\r\n    event TaskCreated(\r\n        uint id,\r\n        string title,\r\n        string description,\r\n        bool realized,\r\n        uint createdAt\r\n    );\r\n\r\n    event TaskDone(uint id, bool realized);\r\n\r\n    mapping(uint=> Task) public tasks;\r\n\r\n    constructor (){\r\n        createTask(\"Mi primer tarea de ejemplo\",\"jovenes millonarios\");\r\n    }\r\n\r\n    function createTask(string memory _title , string memory _description) public {\r\n        taskCounter++;\r\n        tasks[taskCounter] = Task(taskCounter,_title,_description,false,block.timestamp);\r\n        emit TaskCreated(taskCounter, _title,_description,false, block.timestamp);\r\n    }\r\n\r\n    function  taskDone(uint _id) public{\r\n        Task memory _task= tasks[_id];\r\n        _task.realized = !_task.realized;\r\n        tasks[_id] = _task;\r\n        emit TaskDone(_id,_task.realized);\r\n    }\r\n\r\n\r\n    \r\n\r\n\r\n\r\n}",
  "sourcePath": "C:\\Users\\JORGE\\Desktop\\programacion\\Blockchain\\BlockchainProyectoOne\\GlieceTasks truffle\\contracts\\GlieceTasks.sol",
  "compiler": {
    "name": "solc",
    "version": "0.8.13+commit.abaa5c0e.Emscripten.clang"
  },
  "schemaVersion": "3.4.14",
  "updatedAt": "2023-07-24T16:06:15.780Z",
  "networkType": "ethereum",
  "devdoc": {
    "kind": "dev",
    "methods": {},
    "version": 1
  },
  "userdoc": {
    "kind": "user",
    "methods": {},
    "version": 1
  }
}